{
  "contractName": "MyDefiProject",
  "abi": [
    {
      "inputs": [
        {
          "internalType": "address",
          "name": "_uniswap",
          "type": "address"
        }
      ],
      "stateMutability": "nonpayable",
      "type": "constructor"
    },
    {
      "anonymous": false,
      "inputs": [
        {
          "indexed": false,
          "internalType": "uint256",
          "name": "val",
          "type": "uint256"
        }
      ],
      "name": "Log",
      "type": "event"
    },
    {
      "inputs": [
        {
          "internalType": "address",
          "name": "token",
          "type": "address"
        },
        {
          "internalType": "uint256",
          "name": "amountIn",
          "type": "uint256"
        },
        {
          "internalType": "uint256",
          "name": "amountOutMin",
          "type": "uint256"
        },
        {
          "internalType": "uint256",
          "name": "deadline",
          "type": "uint256"
        }
      ],
      "name": "swapTokensForETH",
      "outputs": [],
      "stateMutability": "nonpayable",
      "type": "function"
    }
  ],
  "bytecode": "0x608060405234801561001057600080fd5b50604051610d65380380610d65833981810160405281019061003291906100db565b806000806101000a81548173ffffffffffffffffffffffffffffffffffffffff021916908373ffffffffffffffffffffffffffffffffffffffff16021790555050610108565b600080fd5b600073ffffffffffffffffffffffffffffffffffffffff82169050919050565b60006100a88261007d565b9050919050565b6100b88161009d565b81146100c357600080fd5b50565b6000815190506100d5816100af565b92915050565b6000602082840312156100f1576100f0610078565b5b60006100ff848285016100c6565b91505092915050565b610c4e806101176000396000f3fe608060405234801561001057600080fd5b506004361061002b5760003560e01c8063fde28bb114610030575b600080fd5b61004a600480360381019061004591906105d6565b61004c565b005b7f909c57d5c6ac08245cf2a6de3900e2b868513fa59099b92b27d8db823d92df9c600060405161007c9190610682565b60405180910390a18373ffffffffffffffffffffffffffffffffffffffff1663095ea7b330856040518363ffffffff1660e01b81526004016100bf9291906106bb565b6020604051808303816000875af11580156100de573d6000803e3d6000fd5b505050506040513d601f19601f82011682018060405250810190610102919061071c565b507f909c57d5c6ac08245cf2a6de3900e2b868513fa59099b92b27d8db823d92df9c60016040516101339190610784565b60405180910390a18373ffffffffffffffffffffffffffffffffffffffff166323b872dd3330866040518463ffffffff1660e01b81526004016101789392919061079f565b6020604051808303816000875af1158015610197573d6000803e3d6000fd5b505050506040513d601f19601f820116820180604052508101906101bb919061071c565b507f909c57d5c6ac08245cf2a6de3900e2b868513fa59099b92b27d8db823d92df9c60026040516101ec9190610811565b60405180910390a16000600267ffffffffffffffff8111156102115761021061082c565b5b60405190808252806020026020018201604052801561023f5781602001602082028036833780820191505090505b50905084816000815181106102575761025661085b565b5b602002602001019073ffffffffffffffffffffffffffffffffffffffff16908173ffffffffffffffffffffffffffffffffffffffff168152505060008054906101000a900473ffffffffffffffffffffffffffffffffffffffff1673ffffffffffffffffffffffffffffffffffffffff1663ad5c46486040518163ffffffff1660e01b8152600401602060405180830381865afa1580156102fc573d6000803e3d6000fd5b505050506040513d601f19601f82011682018060405250810190610320919061089f565b816001815181106103345761033361085b565b5b602002602001019073ffffffffffffffffffffffffffffffffffffffff16908173ffffffffffffffffffffffffffffffffffffffff16815250508473ffffffffffffffffffffffffffffffffffffffff1663095ea7b360008054906101000a900473ffffffffffffffffffffffffffffffffffffffff16866040518363ffffffff1660e01b81526004016103c99291906106bb565b6020604051808303816000875af11580156103e8573d6000803e3d6000fd5b505050506040513d601f19601f8201168201806040525081019061040c919061071c565b507f909c57d5c6ac08245cf2a6de3900e2b868513fa59099b92b27d8db823d92df9c600360405161043d9190610907565b60405180910390a160008054906101000a900473ffffffffffffffffffffffffffffffffffffffff1673ffffffffffffffffffffffffffffffffffffffff166318cbafe585858433876040518663ffffffff1660e01b81526004016104a69594939291906109e0565b6000604051808303816000875af11580156104c5573d6000803e3d6000fd5b505050506040513d6000823e3d601f19601f820116820180604052508101906104ee9190610b79565b507f909c57d5c6ac08245cf2a6de3900e2b868513fa59099b92b27d8db823d92df9c600460405161051f9190610bfd565b60405180910390a15050505050565b6000604051905090565b600080fd5b600080fd5b600073ffffffffffffffffffffffffffffffffffffffff82169050919050565b600061056d82610542565b9050919050565b61057d81610562565b811461058857600080fd5b50565b60008135905061059a81610574565b92915050565b6000819050919050565b6105b3816105a0565b81146105be57600080fd5b50565b6000813590506105d0816105aa565b92915050565b600080600080608085870312156105f0576105ef610538565b5b60006105fe8782880161058b565b945050602061060f878288016105c1565b9350506040610620878288016105c1565b9250506060610631878288016105c1565b91505092959194509250565b6000819050919050565b6000819050919050565b600061066c6106676106628461063d565b610647565b6105a0565b9050919050565b61067c81610651565b82525050565b60006020820190506106976000830184610673565b92915050565b6106a681610562565b82525050565b6106b5816105a0565b82525050565b60006040820190506106d0600083018561069d565b6106dd60208301846106ac565b9392505050565b60008115159050919050565b6106f9816106e4565b811461070457600080fd5b50565b600081519050610716816106f0565b92915050565b60006020828403121561073257610731610538565b5b600061074084828501610707565b91505092915050565b6000819050919050565b600061076e61076961076484610749565b610647565b6105a0565b9050919050565b61077e81610753565b82525050565b60006020820190506107996000830184610775565b92915050565b60006060820190506107b4600083018661069d565b6107c1602083018561069d565b6107ce60408301846106ac565b949350505050565b6000819050919050565b60006107fb6107f66107f1846107d6565b610647565b6105a0565b9050919050565b61080b816107e0565b82525050565b60006020820190506108266000830184610802565b92915050565b7f4e487b7100000000000000000000000000000000000000000000000000000000600052604160045260246000fd5b7f4e487b7100000000000000000000000000000000000000000000000000000000600052603260045260246000fd5b60008151905061089981610574565b92915050565b6000602082840312156108b5576108b4610538565b5b60006108c38482850161088a565b91505092915050565b6000819050919050565b60006108f16108ec6108e7846108cc565b610647565b6105a0565b9050919050565b610901816108d6565b82525050565b600060208201905061091c60008301846108f8565b92915050565b600081519050919050565b600082825260208201905092915050565b6000819050602082019050919050565b61095781610562565b82525050565b6000610969838361094e565b60208301905092915050565b6000602082019050919050565b600061098d82610922565b610997818561092d565b93506109a28361093e565b8060005b838110156109d35781516109ba888261095d565b97506109c583610975565b9250506001810190506109a6565b5085935050505092915050565b600060a0820190506109f560008301886106ac565b610a0260208301876106ac565b8181036040830152610a148186610982565b9050610a23606083018561069d565b610a3060808301846106ac565b9695505050505050565b600080fd5b6000601f19601f8301169050919050565b610a5982610a3f565b810181811067ffffffffffffffff82111715610a7857610a7761082c565b5b80604052505050565b6000610a8b61052e565b9050610a978282610a50565b919050565b600067ffffffffffffffff821115610ab757610ab661082c565b5b602082029050602081019050919050565b600080fd5b600081519050610adc816105aa565b92915050565b6000610af5610af084610a9c565b610a81565b90508083825260208201905060208402830185811115610b1857610b17610ac8565b5b835b81811015610b415780610b2d8882610acd565b845260208401935050602081019050610b1a565b5050509392505050565b600082601f830112610b6057610b5f610a3a565b5b8151610b70848260208601610ae2565b91505092915050565b600060208284031215610b8f57610b8e610538565b5b600082015167ffffffffffffffff811115610bad57610bac61053d565b5b610bb984828501610b4b565b91505092915050565b6000819050919050565b6000610be7610be2610bdd84610bc2565b610647565b6105a0565b9050919050565b610bf781610bcc565b82525050565b6000602082019050610c126000830184610bee565b9291505056fea26469706673582212208e956b1ef7ae587e494d260b6fd55ae5f50c03584a04de44564d91a356f2851564736f6c634300080d0033",
  "immutableReferences": {},
  "source": "// SPDX-License-Identifier: MIT\npragma solidity ^0.8.13;\n\ninterface IUniswap {\n    function swapExactTokensForETH(\n        uint256 amountIn,\n        uint256 amountOutMin,\n        address[] calldata path,\n        address to,\n        uint256 deadline\n    ) external returns (uint256[] memory amounts);\n\n    function WETH() external pure returns (address);\n}\n\ninterface IERC20 {\n    function transferFrom(\n        address from,\n        address to,\n        uint256 amount\n    ) external returns (bool);\n\n    function approve(address spender, uint256 amount) external returns (bool);\n}\n\ncontract MyDefiProject {\n    IUniswap uniswap;\n\n    event Log(uint256 val);\n\n    constructor(address _uniswap) {\n        uniswap = IUniswap(_uniswap);\n    }\n\n    function swapTokensForETH(\n        address token,\n        uint256 amountIn,\n        uint256 amountOutMin,\n        uint256 deadline\n    ) external {\n        emit Log(0);\n\n        IERC20(token).approve(address(this), amountIn);\n\n        emit Log(1);\n\n        IERC20(token).transferFrom(msg.sender, address(this), amountIn);\n\n        emit Log(2);\n\n        address[] memory path = new address[](2);\n        path[0] = token;\n        path[1] = uniswap.WETH();\n        IERC20(token).approve(address(uniswap), amountIn);\n\n        emit Log(3);\n        uniswap.swapExactTokensForETH(\n            amountIn,\n            amountOutMin,\n            path,\n            msg.sender,\n            deadline\n        );\n        emit Log(4);\n    }\n}\n",
  "sourcePath": "/Users/mo7tr/Desktop/ETB/Uniswap interraction for developers/Solidity interraction/contracts/MyDefiProject.sol",
  "compiler": {
    "name": "solc",
    "version": "0.8.13+commit.abaa5c0e.Emscripten.clang"
  },
  "schemaVersion": "3.4.8",
  "updatedAt": "2022-09-09T17:25:51.738Z",
  "networkType": "ethereum",
  "devdoc": {
    "kind": "dev",
    "methods": {},
    "version": 1
  },
  "userdoc": {
    "kind": "user",
    "methods": {},
    "version": 1
  }
}