{
  "contractName": "UniswapInteraction",
  "abi": [
    {
      "inputs": [
        {
          "internalType": "address",
          "name": "_uniswap",
          "type": "address"
        }
      ],
      "stateMutability": "nonpayable",
      "type": "constructor"
    },
    {
      "anonymous": false,
      "inputs": [
        {
          "indexed": false,
          "internalType": "string",
          "name": "message",
          "type": "string"
        },
        {
          "indexed": false,
          "internalType": "uint256",
          "name": "val",
          "type": "uint256"
        }
      ],
      "name": "Log",
      "type": "event"
    },
    {
      "inputs": [
        {
          "internalType": "address",
          "name": "token",
          "type": "address"
        },
        {
          "internalType": "uint256",
          "name": "amountIn",
          "type": "uint256"
        },
        {
          "internalType": "uint256",
          "name": "amountOutMin",
          "type": "uint256"
        },
        {
          "internalType": "uint256",
          "name": "deadline",
          "type": "uint256"
        }
      ],
      "name": "swapTokensForETH",
      "outputs": [],
      "stateMutability": "nonpayable",
      "type": "function"
    }
  ],
  "bytecode": "0x608060405234801561001057600080fd5b50604051610e21380380610e21833981810160405281019061003291906100db565b806000806101000a81548173ffffffffffffffffffffffffffffffffffffffff021916908373ffffffffffffffffffffffffffffffffffffffff16021790555050610108565b600080fd5b600073ffffffffffffffffffffffffffffffffffffffff82169050919050565b60006100a88261007d565b9050919050565b6100b88161009d565b81146100c357600080fd5b50565b6000815190506100d5816100af565b92915050565b6000602082840312156100f1576100f0610078565b5b60006100ff848285016100c6565b91505092915050565b610d0a806101176000396000f3fe608060405234801561001057600080fd5b506004361061002b5760003560e01c8063fde28bb114610030575b600080fd5b61004a600480360381019061004591906105d6565b61004c565b005b7fdd970dd9b5bfe707922155b058a407655cb18288b807e2216442bca8ad83d6b5600060405161007c91906106df565b60405180910390a18373ffffffffffffffffffffffffffffffffffffffff1663095ea7b330856040518363ffffffff1660e01b81526004016100bf92919061072b565b6020604051808303816000875af11580156100de573d6000803e3d6000fd5b505050506040513d601f19601f82011682018060405250810190610102919061078c565b507fdd970dd9b5bfe707922155b058a407655cb18288b807e2216442bca8ad83d6b5600160405161013391906107f4565b60405180910390a18373ffffffffffffffffffffffffffffffffffffffff166323b872dd3330866040518463ffffffff1660e01b815260040161017893929190610822565b6020604051808303816000875af1158015610197573d6000803e3d6000fd5b505050506040513d601f19601f820116820180604052508101906101bb919061078c565b507fdd970dd9b5bfe707922155b058a407655cb18288b807e2216442bca8ad83d6b560026040516101ec9190610894565b60405180910390a16000600267ffffffffffffffff811115610211576102106108c2565b5b60405190808252806020026020018201604052801561023f5781602001602082028036833780820191505090505b5090508481600081518110610257576102566108f1565b5b602002602001019073ffffffffffffffffffffffffffffffffffffffff16908173ffffffffffffffffffffffffffffffffffffffff168152505060008054906101000a900473ffffffffffffffffffffffffffffffffffffffff1673ffffffffffffffffffffffffffffffffffffffff1663ad5c46486040518163ffffffff1660e01b8152600401602060405180830381865afa1580156102fc573d6000803e3d6000fd5b505050506040513d601f19601f820116820180604052508101906103209190610935565b81600181518110610334576103336108f1565b5b602002602001019073ffffffffffffffffffffffffffffffffffffffff16908173ffffffffffffffffffffffffffffffffffffffff16815250508473ffffffffffffffffffffffffffffffffffffffff1663095ea7b360008054906101000a900473ffffffffffffffffffffffffffffffffffffffff16866040518363ffffffff1660e01b81526004016103c992919061072b565b6020604051808303816000875af11580156103e8573d6000803e3d6000fd5b505050506040513d601f19601f8201168201806040525081019061040c919061078c565b507fdd970dd9b5bfe707922155b058a407655cb18288b807e2216442bca8ad83d6b5600360405161043d919061099d565b60405180910390a160008054906101000a900473ffffffffffffffffffffffffffffffffffffffff1673ffffffffffffffffffffffffffffffffffffffff166318cbafe585858433876040518663ffffffff1660e01b81526004016104a6959493929190610a89565b6000604051808303816000875af11580156104c5573d6000803e3d6000fd5b505050506040513d6000823e3d601f19601f820116820180604052508101906104ee9190610c22565b507fdd970dd9b5bfe707922155b058a407655cb18288b807e2216442bca8ad83d6b5600460405161051f9190610ca6565b60405180910390a15050505050565b6000604051905090565b600080fd5b600080fd5b600073ffffffffffffffffffffffffffffffffffffffff82169050919050565b600061056d82610542565b9050919050565b61057d81610562565b811461058857600080fd5b50565b60008135905061059a81610574565b92915050565b6000819050919050565b6105b3816105a0565b81146105be57600080fd5b50565b6000813590506105d0816105aa565b92915050565b600080600080608085870312156105f0576105ef610538565b5b60006105fe8782880161058b565b945050602061060f878288016105c1565b9350506040610620878288016105c1565b9250506060610631878288016105c1565b91505092959194509250565b600082825260208201905092915050565b7f636f6e736f6c652e6c6f67206e756d6265723a00000000000000000000000000600082015250565b600061068460138361063d565b915061068f8261064e565b602082019050919050565b6000819050919050565b6000819050919050565b60006106c96106c46106bf8461069a565b6106a4565b6105a0565b9050919050565b6106d9816106ae565b82525050565b600060408201905081810360008301526106f881610677565b905061070760208301846106d0565b92915050565b61071681610562565b82525050565b610725816105a0565b82525050565b6000604082019050610740600083018561070d565b61074d602083018461071c565b9392505050565b60008115159050919050565b61076981610754565b811461077457600080fd5b50565b60008151905061078681610760565b92915050565b6000602082840312156107a2576107a1610538565b5b60006107b084828501610777565b91505092915050565b6000819050919050565b60006107de6107d96107d4846107b9565b6106a4565b6105a0565b9050919050565b6107ee816107c3565b82525050565b6000604082019050818103600083015261080d81610677565b905061081c60208301846107e5565b92915050565b6000606082019050610837600083018661070d565b610844602083018561070d565b610851604083018461071c565b949350505050565b6000819050919050565b600061087e61087961087484610859565b6106a4565b6105a0565b9050919050565b61088e81610863565b82525050565b600060408201905081810360008301526108ad81610677565b90506108bc6020830184610885565b92915050565b7f4e487b7100000000000000000000000000000000000000000000000000000000600052604160045260246000fd5b7f4e487b7100000000000000000000000000000000000000000000000000000000600052603260045260246000fd5b60008151905061092f81610574565b92915050565b60006020828403121561094b5761094a610538565b5b600061095984828501610920565b91505092915050565b6000819050919050565b600061098761098261097d84610962565b6106a4565b6105a0565b9050919050565b6109978161096c565b82525050565b600060408201905081810360008301526109b681610677565b90506109c5602083018461098e565b92915050565b600081519050919050565b600082825260208201905092915050565b6000819050602082019050919050565b610a0081610562565b82525050565b6000610a1283836109f7565b60208301905092915050565b6000602082019050919050565b6000610a36826109cb565b610a4081856109d6565b9350610a4b836109e7565b8060005b83811015610a7c578151610a638882610a06565b9750610a6e83610a1e565b925050600181019050610a4f565b5085935050505092915050565b600060a082019050610a9e600083018861071c565b610aab602083018761071c565b8181036040830152610abd8186610a2b565b9050610acc606083018561070d565b610ad9608083018461071c565b9695505050505050565b600080fd5b6000601f19601f8301169050919050565b610b0282610ae8565b810181811067ffffffffffffffff82111715610b2157610b206108c2565b5b80604052505050565b6000610b3461052e565b9050610b408282610af9565b919050565b600067ffffffffffffffff821115610b6057610b5f6108c2565b5b602082029050602081019050919050565b600080fd5b600081519050610b85816105aa565b92915050565b6000610b9e610b9984610b45565b610b2a565b90508083825260208201905060208402830185811115610bc157610bc0610b71565b5b835b81811015610bea5780610bd68882610b76565b845260208401935050602081019050610bc3565b5050509392505050565b600082601f830112610c0957610c08610ae3565b5b8151610c19848260208601610b8b565b91505092915050565b600060208284031215610c3857610c37610538565b5b600082015167ffffffffffffffff811115610c5657610c5561053d565b5b610c6284828501610bf4565b91505092915050565b6000819050919050565b6000610c90610c8b610c8684610c6b565b6106a4565b6105a0565b9050919050565b610ca081610c75565b82525050565b60006040820190508181036000830152610cbf81610677565b9050610cce6020830184610c97565b9291505056fea2646970667358221220363e2e365b5c334d9968e80049b8e80a08dad2e9dbfb7d334d586099aa8adb4e64736f6c634300080d0033",
  "immutableReferences": {},
  "source": "// SPDX-License-Identifier: MIT\npragma solidity ^0.8.13;\n\ninterface IUniswap {\n    function swapExactTokensForETH(\n        uint256 amountIn,\n        uint256 amountOutMin,\n        address[] calldata path,\n        address to,\n        uint256 deadline\n    ) external returns (uint256[] memory amounts);\n\n    function WETH() external pure returns (address);\n}\n\ninterface IERC20 {\n    function transferFrom(\n        address sender,\n        address recipient,\n        uint256 amount\n    ) external returns (bool);\n\n    function approve(address spender, uint256 amount) external returns (bool);\n\n    function balanceOf(address account) external view returns (uint256);\n\n    function allowance(address owner, address spender)\n        external\n        view\n        returns (uint256);\n}\n\ncontract UniswapInteraction {\n    IUniswap uniswap;\n\n    event Log(string message, uint256 val);\n\n    constructor(address _uniswap) {\n        uniswap = IUniswap(_uniswap);\n    }\n\n    function swapTokensForETH(\n        address token,\n        uint256 amountIn,\n        uint256 amountOutMin,\n        uint256 deadline\n    ) external {\n        emit Log(\"console.log number:\", 0);\n\n        IERC20(token).approve(address(this), amountIn);\n\n        emit Log(\"console.log number:\", 1);\n\n        IERC20(token).transferFrom(msg.sender, address(this), amountIn);\n\n        emit Log(\"console.log number:\", 2);\n\n        address[] memory path = new address[](2);\n        path[0] = token;\n        path[1] = uniswap.WETH();\n        IERC20(token).approve(address(uniswap), amountIn);\n\n        emit Log(\"console.log number:\", 3);\n        uniswap.swapExactTokensForETH(\n            amountIn,\n            amountOutMin,\n            path,\n            msg.sender,\n            deadline\n        );\n        emit Log(\"console.log number:\", 4);\n    }\n}\n",
  "sourcePath": "/Users/mo7tr/Desktop/ETB/Uniswap interraction for developers/Solidity interaction/contracts/UniswapInteraction.sol",
  "compiler": {
    "name": "solc",
    "version": "0.8.13+commit.abaa5c0e.Emscripten.clang"
  },
  "schemaVersion": "3.4.8",
  "updatedAt": "2022-09-22T19:58:12.121Z",
  "devdoc": {
    "kind": "dev",
    "methods": {},
    "version": 1
  },
  "userdoc": {
    "kind": "user",
    "methods": {},
    "version": 1
  }
}