{
  "contractName": "UniswapInteraction2",
  "abi": [
    {
      "inputs": [
        {
          "internalType": "contract ISwapRouter",
          "name": "_swapRouter",
          "type": "address"
        }
      ],
      "stateMutability": "nonpayable",
      "type": "constructor"
    },
    {
      "inputs": [],
      "name": "WETH9",
      "outputs": [
        {
          "internalType": "address",
          "name": "",
          "type": "address"
        }
      ],
      "stateMutability": "view",
      "type": "function",
      "constant": true
    },
    {
      "inputs": [],
      "name": "poolFee",
      "outputs": [
        {
          "internalType": "uint24",
          "name": "",
          "type": "uint24"
        }
      ],
      "stateMutability": "view",
      "type": "function",
      "constant": true
    },
    {
      "inputs": [],
      "name": "swapRouter",
      "outputs": [
        {
          "internalType": "contract ISwapRouter",
          "name": "",
          "type": "address"
        }
      ],
      "stateMutability": "view",
      "type": "function",
      "constant": true
    },
    {
      "inputs": [
        {
          "internalType": "uint256",
          "name": "amountIn",
          "type": "uint256"
        },
        {
          "internalType": "address",
          "name": "_token",
          "type": "address"
        }
      ],
      "name": "swapExactInputSingle",
      "outputs": [],
      "stateMutability": "nonpayable",
      "type": "function"
    }
  ],
  "bytecode": "0x60a060405234801561001057600080fd5b506040516108b13803806108b1833981810160405281019061003291906100e1565b8073ffffffffffffffffffffffffffffffffffffffff1660808173ffffffffffffffffffffffffffffffffffffffff16815250505061010e565b600080fd5b600073ffffffffffffffffffffffffffffffffffffffff82169050919050565b600061009c82610071565b9050919050565b60006100ae82610091565b9050919050565b6100be816100a3565b81146100c957600080fd5b50565b6000815190506100db816100b5565b92915050565b6000602082840312156100f7576100f661006c565b5b6000610105848285016100cc565b91505092915050565b60805161077a61013760003960008181610184015281816102ba015261035c015261077a6000f3fe608060405234801561001057600080fd5b506004361061004c5760003560e01c8063089fe6aa146100515780634aa4a4fc1461006f578063793ea8d11461008d578063c31c9c07146100a9575b600080fd5b6100596100c7565b604051610066919061039c565b60405180910390f35b6100776100cd565b60405161008491906103f8565b60405180910390f35b6100a760048036038101906100a2919061047a565b6100e5565b005b6100b161035a565b6040516100be9190610519565b60405180910390f35b610bb881565b73d0a1e359811322d97991e03f863a0c30c2cf029c81565b8073ffffffffffffffffffffffffffffffffffffffff166323b872dd3330856040518463ffffffff1660e01b815260040161012293929190610543565b6020604051808303816000875af1158015610141573d6000803e3d6000fd5b505050506040513d601f19601f8201168201806040525081019061016591906105b2565b508073ffffffffffffffffffffffffffffffffffffffff1663095ea7b37f0000000000000000000000000000000000000000000000000000000000000000846040518363ffffffff1660e01b81526004016101c19291906105df565b6020604051808303816000875af11580156101e0573d6000803e3d6000fd5b505050506040513d601f19601f8201168201806040525081019061020491906105b2565b5060006040518061010001604052808373ffffffffffffffffffffffffffffffffffffffff16815260200173d0a1e359811322d97991e03f863a0c30c2cf029c73ffffffffffffffffffffffffffffffffffffffff168152602001610bb862ffffff1681526020013373ffffffffffffffffffffffffffffffffffffffff16815260200142815260200184815260200160008152602001600073ffffffffffffffffffffffffffffffffffffffff1681525090507f000000000000000000000000000000000000000000000000000000000000000073ffffffffffffffffffffffffffffffffffffffff1663414bf389826040518263ffffffff1660e01b815260040161031191906106e6565b6020604051808303816000875af1158015610330573d6000803e3d6000fd5b505050506040513d601f19601f820116820180604052508101906103549190610717565b50505050565b7f000000000000000000000000000000000000000000000000000000000000000081565b600062ffffff82169050919050565b6103968161037e565b82525050565b60006020820190506103b1600083018461038d565b92915050565b600073ffffffffffffffffffffffffffffffffffffffff82169050919050565b60006103e2826103b7565b9050919050565b6103f2816103d7565b82525050565b600060208201905061040d60008301846103e9565b92915050565b600080fd5b6000819050919050565b61042b81610418565b811461043657600080fd5b50565b60008135905061044881610422565b92915050565b610457816103d7565b811461046257600080fd5b50565b6000813590506104748161044e565b92915050565b6000806040838503121561049157610490610413565b5b600061049f85828601610439565b92505060206104b085828601610465565b9150509250929050565b6000819050919050565b60006104df6104da6104d5846103b7565b6104ba565b6103b7565b9050919050565b60006104f1826104c4565b9050919050565b6000610503826104e6565b9050919050565b610513816104f8565b82525050565b600060208201905061052e600083018461050a565b92915050565b61053d81610418565b82525050565b600060608201905061055860008301866103e9565b61056560208301856103e9565b6105726040830184610534565b949350505050565b60008115159050919050565b61058f8161057a565b811461059a57600080fd5b50565b6000815190506105ac81610586565b92915050565b6000602082840312156105c8576105c7610413565b5b60006105d68482850161059d565b91505092915050565b60006040820190506105f460008301856103e9565b6106016020830184610534565b9392505050565b610611816103d7565b82525050565b6106208161037e565b82525050565b61062f81610418565b82525050565b61063e816103b7565b82525050565b6101008201600082015161065b6000850182610608565b50602082015161066e6020850182610608565b5060408201516106816040850182610617565b5060608201516106946060850182610608565b5060808201516106a76080850182610626565b5060a08201516106ba60a0850182610626565b5060c08201516106cd60c0850182610626565b5060e08201516106e060e0850182610635565b50505050565b6000610100820190506106fc6000830184610644565b92915050565b60008151905061071181610422565b92915050565b60006020828403121561072d5761072c610413565b5b600061073b84828501610702565b9150509291505056fea2646970667358221220b44a8b57aac7b555b97fe76ab547e6e537f7dd02f3a5ae3c29f5adca61d516af64736f6c634300080d0033",
  "immutableReferences": {
    "68": [
      {
        "length": 32,
        "start": 388
      },
      {
        "length": 32,
        "start": 698
      },
      {
        "length": 32,
        "start": 860
      }
    ]
  },
  "source": "// SPDX-License-Identifier: MIT\npragma solidity ^0.8.13;\n\ninterface IERC20_2 {\n    function transferFrom(\n        address sender,\n        address recipient,\n        uint256 amount\n    ) external returns (bool);\n\n    function approve(address spender, uint256 amount) external returns (bool);\n\n    function allowance(address owner, address spender)\n        external\n        view\n        returns (uint256);\n\n    function balanceOf(address account) external view returns (uint256);\n}\n\ninterface ISwapRouter {\n    struct ExactInputSingleParams {\n        address tokenIn;\n        address tokenOut;\n        uint24 fee;\n        address recipient;\n        uint256 deadline;\n        uint256 amountIn;\n        uint256 amountOutMinimum;\n        uint160 sqrtPriceLimitX96;\n    }\n\n    /// @notice Swaps `amountIn` of one token for as much as possible of another token\n    /// @param params The parameters necessary for the swap, encoded as `ExactInputSingleParams` in calldata\n    /// @return amountOut The amount of the received token\n    function exactInputSingle(ExactInputSingleParams calldata params)\n        external\n        payable\n        returns (uint256 amountOut);\n}\n\ncontract UniswapInteraction2 {\n    ISwapRouter public immutable swapRouter;\n\n    address public constant WETH9 = 0xd0A1E359811322d97991E03f863a0C30C2cF029C;\n\n    // Phere pool fees at 0.3%\n    uint24 public constant poolFee = 3000;\n\n    constructor(ISwapRouter _swapRouter) {\n        swapRouter = _swapRouter;\n    }\n\n    function swapExactInputSingle(uint256 amountIn, address _token) external {\n        // Transfert dtokens to smart contract ! need to approve this transfer first\n        IERC20_2(_token).transferFrom(msg.sender, address(this), amountIn);\n\n        // allow uniswap to use our tokens\n        IERC20_2(_token).approve(address(swapRouter), amountIn);\n\n        //Create parameters to call the swap function\n        ISwapRouter.ExactInputSingleParams memory params = ISwapRouter\n            .ExactInputSingleParams({\n                tokenIn: _token,\n                tokenOut: WETH9,\n                fee: poolFee,\n                recipient: msg.sender,\n                deadline: block.timestamp,\n                amountIn: amountIn,\n                amountOutMinimum: 0,\n                sqrtPriceLimitX96: 0\n            });\n\n        // swap then ETH will be transfer to msg.sender\n        swapRouter.exactInputSingle(params);\n    }\n}\n",
  "sourcePath": "/Users/mo7tr/Desktop/ETB/Uniswap interraction for developers/Solidity interaction/contracts/UniswapInteraction2.sol",
  "compiler": {
    "name": "solc",
    "version": "0.8.13+commit.abaa5c0e.Emscripten.clang"
  },
  "schemaVersion": "3.4.8",
  "updatedAt": "2022-09-22T20:22:14.225Z",
  "networkType": "ethereum",
  "devdoc": {
    "kind": "dev",
    "methods": {},
    "version": 1
  },
  "userdoc": {
    "kind": "user",
    "methods": {},
    "version": 1
  }
}